{
  "address": "0xd66895b686D40a638C702C7CBED4C62142066bB0",
  "abi": [
    {
      "inputs": [
        {
          "internalType": "string",
          "name": "name_",
          "type": "string"
        },
        {
          "internalType": "string",
          "name": "symbol_",
          "type": "string"
        },
        {
          "internalType": "uint8",
          "name": "decimals__",
          "type": "uint8"
        }
      ],
      "stateMutability": "nonpayable",
      "type": "constructor"
    },
    {
      "inputs": [],
      "name": "InvalidShortString",
      "type": "error"
    },
    {
      "inputs": [
        {
          "internalType": "string",
          "name": "str",
          "type": "string"
        }
      ],
      "name": "StringTooLong",
      "type": "error"
    },
    {
      "anonymous": false,
      "inputs": [
        {
          "indexed": true,
          "internalType": "address",
          "name": "owner",
          "type": "address"
        },
        {
          "indexed": true,
          "internalType": "address",
          "name": "spender",
          "type": "address"
        },
        {
          "indexed": false,
          "internalType": "uint256",
          "name": "value",
          "type": "uint256"
        }
      ],
      "name": "Approval",
      "type": "event"
    },
    {
      "anonymous": false,
      "inputs": [],
      "name": "EIP712DomainChanged",
      "type": "event"
    },
    {
      "anonymous": false,
      "inputs": [
        {
          "indexed": true,
          "internalType": "address",
          "name": "from",
          "type": "address"
        },
        {
          "indexed": true,
          "internalType": "address",
          "name": "to",
          "type": "address"
        },
        {
          "indexed": false,
          "internalType": "uint256",
          "name": "value",
          "type": "uint256"
        }
      ],
      "name": "Transfer",
      "type": "event"
    },
    {
      "inputs": [],
      "name": "DOMAIN_SEPARATOR",
      "outputs": [
        {
          "internalType": "bytes32",
          "name": "",
          "type": "bytes32"
        }
      ],
      "stateMutability": "view",
      "type": "function"
    },
    {
      "inputs": [
        {
          "internalType": "address",
          "name": "owner",
          "type": "address"
        },
        {
          "internalType": "address",
          "name": "spender",
          "type": "address"
        }
      ],
      "name": "allowance",
      "outputs": [
        {
          "internalType": "uint256",
          "name": "",
          "type": "uint256"
        }
      ],
      "stateMutability": "view",
      "type": "function"
    },
    {
      "inputs": [
        {
          "internalType": "address",
          "name": "spender",
          "type": "address"
        },
        {
          "internalType": "uint256",
          "name": "amount",
          "type": "uint256"
        }
      ],
      "name": "approve",
      "outputs": [
        {
          "internalType": "bool",
          "name": "",
          "type": "bool"
        }
      ],
      "stateMutability": "nonpayable",
      "type": "function"
    },
    {
      "inputs": [
        {
          "internalType": "address",
          "name": "account",
          "type": "address"
        }
      ],
      "name": "balanceOf",
      "outputs": [
        {
          "internalType": "uint256",
          "name": "",
          "type": "uint256"
        }
      ],
      "stateMutability": "view",
      "type": "function"
    },
    {
      "inputs": [
        {
          "internalType": "uint256",
          "name": "amount",
          "type": "uint256"
        }
      ],
      "name": "burn",
      "outputs": [],
      "stateMutability": "nonpayable",
      "type": "function"
    },
    {
      "inputs": [],
      "name": "decimals",
      "outputs": [
        {
          "internalType": "uint8",
          "name": "",
          "type": "uint8"
        }
      ],
      "stateMutability": "view",
      "type": "function"
    },
    {
      "inputs": [
        {
          "internalType": "address",
          "name": "spender",
          "type": "address"
        },
        {
          "internalType": "uint256",
          "name": "subtractedValue",
          "type": "uint256"
        }
      ],
      "name": "decreaseAllowance",
      "outputs": [
        {
          "internalType": "bool",
          "name": "",
          "type": "bool"
        }
      ],
      "stateMutability": "nonpayable",
      "type": "function"
    },
    {
      "inputs": [],
      "name": "eip712Domain",
      "outputs": [
        {
          "internalType": "bytes1",
          "name": "fields",
          "type": "bytes1"
        },
        {
          "internalType": "string",
          "name": "name",
          "type": "string"
        },
        {
          "internalType": "string",
          "name": "version",
          "type": "string"
        },
        {
          "internalType": "uint256",
          "name": "chainId",
          "type": "uint256"
        },
        {
          "internalType": "address",
          "name": "verifyingContract",
          "type": "address"
        },
        {
          "internalType": "bytes32",
          "name": "salt",
          "type": "bytes32"
        },
        {
          "internalType": "uint256[]",
          "name": "extensions",
          "type": "uint256[]"
        }
      ],
      "stateMutability": "view",
      "type": "function"
    },
    {
      "inputs": [
        {
          "internalType": "address",
          "name": "spender",
          "type": "address"
        },
        {
          "internalType": "uint256",
          "name": "addedValue",
          "type": "uint256"
        }
      ],
      "name": "increaseAllowance",
      "outputs": [
        {
          "internalType": "bool",
          "name": "",
          "type": "bool"
        }
      ],
      "stateMutability": "nonpayable",
      "type": "function"
    },
    {
      "inputs": [
        {
          "internalType": "uint256",
          "name": "amount",
          "type": "uint256"
        }
      ],
      "name": "mint",
      "outputs": [],
      "stateMutability": "nonpayable",
      "type": "function"
    },
    {
      "inputs": [],
      "name": "name",
      "outputs": [
        {
          "internalType": "string",
          "name": "",
          "type": "string"
        }
      ],
      "stateMutability": "view",
      "type": "function"
    },
    {
      "inputs": [
        {
          "internalType": "address",
          "name": "owner",
          "type": "address"
        }
      ],
      "name": "nonces",
      "outputs": [
        {
          "internalType": "uint256",
          "name": "",
          "type": "uint256"
        }
      ],
      "stateMutability": "view",
      "type": "function"
    },
    {
      "inputs": [
        {
          "internalType": "address",
          "name": "owner",
          "type": "address"
        },
        {
          "internalType": "address",
          "name": "spender",
          "type": "address"
        },
        {
          "internalType": "uint256",
          "name": "value",
          "type": "uint256"
        },
        {
          "internalType": "uint256",
          "name": "deadline",
          "type": "uint256"
        },
        {
          "internalType": "uint8",
          "name": "v",
          "type": "uint8"
        },
        {
          "internalType": "bytes32",
          "name": "r",
          "type": "bytes32"
        },
        {
          "internalType": "bytes32",
          "name": "s",
          "type": "bytes32"
        }
      ],
      "name": "permit",
      "outputs": [],
      "stateMutability": "nonpayable",
      "type": "function"
    },
    {
      "inputs": [],
      "name": "symbol",
      "outputs": [
        {
          "internalType": "string",
          "name": "",
          "type": "string"
        }
      ],
      "stateMutability": "view",
      "type": "function"
    },
    {
      "inputs": [],
      "name": "totalSupply",
      "outputs": [
        {
          "internalType": "uint256",
          "name": "",
          "type": "uint256"
        }
      ],
      "stateMutability": "view",
      "type": "function"
    },
    {
      "inputs": [
        {
          "internalType": "address",
          "name": "to",
          "type": "address"
        },
        {
          "internalType": "uint256",
          "name": "amount",
          "type": "uint256"
        }
      ],
      "name": "transfer",
      "outputs": [
        {
          "internalType": "bool",
          "name": "",
          "type": "bool"
        }
      ],
      "stateMutability": "nonpayable",
      "type": "function"
    },
    {
      "inputs": [
        {
          "internalType": "address",
          "name": "from",
          "type": "address"
        },
        {
          "internalType": "address",
          "name": "to",
          "type": "address"
        },
        {
          "internalType": "uint256",
          "name": "amount",
          "type": "uint256"
        }
      ],
      "name": "transferFrom",
      "outputs": [
        {
          "internalType": "bool",
          "name": "",
          "type": "bool"
        }
      ],
      "stateMutability": "nonpayable",
      "type": "function"
    }
  ],
  "transactionHash": "0x09373998a7f22b10480ce40e16fb266d0d41aab8c12e82711150d62b7fc5098d",
  "args": [
    "MOCK USDT",
    "mUSDT",
    18
  ],
  "numDeployments": 1,
  "solcInputHash": "22b9ee19dbd5efc3f422e65fe98a6bcd",
  "bytecode": "0x6101606040523480156200001257600080fd5b50604051620031dd380380620031dd83398181016040528101906200003891906200046a565b82806040518060400160405280600181526020017f3100000000000000000000000000000000000000000000000000000000000000815250858581600390816200008391906200074f565b5080600490816200009591906200074f565b505050620000ae6005836200016d60201b90919060201c565b6101208181525050620000cc6006826200016d60201b90919060201c565b6101408181525050818051906020012060e08181525050808051906020012061010081815250504660a081815250506200010b620001c560201b60201c565b608081815250503073ffffffffffffffffffffffffffffffffffffffff1660c08173ffffffffffffffffffffffffffffffffffffffff168152505050505080600960006101000a81548160ff021916908360ff16021790555050505062000a1c565b600060208351101562000193576200018b836200022260201b60201c565b9050620001bf565b82620001a5836200028f60201b60201c565b6000019081620001b691906200074f565b5060ff60001b90505b92915050565b60007f8b73c3c69bb8fe3d512ecc4cf759cc79239f7b179b0ffacaa9a75d522b39400f60e05161010051463060405160200162000207959493929190620008a7565b60405160208183030381529060405280519060200120905090565b600080829050601f815111156200027257826040517f305a27a900000000000000000000000000000000000000000000000000000000815260040162000269919062000956565b60405180910390fd5b8051816200028090620009ac565b60001c1760001b915050919050565b6000819050919050565b6000604051905090565b600080fd5b600080fd5b600080fd5b600080fd5b6000601f19601f8301169050919050565b7f4e487b7100000000000000000000000000000000000000000000000000000000600052604160045260246000fd5b6200030282620002b7565b810181811067ffffffffffffffff82111715620003245762000323620002c8565b5b80604052505050565b60006200033962000299565b9050620003478282620002f7565b919050565b600067ffffffffffffffff8211156200036a5762000369620002c8565b5b6200037582620002b7565b9050602081019050919050565b60005b83811015620003a257808201518184015260208101905062000385565b60008484015250505050565b6000620003c5620003bf846200034c565b6200032d565b905082815260208101848484011115620003e457620003e3620002b2565b5b620003f184828562000382565b509392505050565b600082601f830112620004115762000410620002ad565b5b815162000423848260208601620003ae565b91505092915050565b600060ff82169050919050565b62000444816200042c565b81146200045057600080fd5b50565b600081519050620004648162000439565b92915050565b600080600060608486031215620004865762000485620002a3565b5b600084015167ffffffffffffffff811115620004a757620004a6620002a8565b5b620004b586828701620003f9565b935050602084015167ffffffffffffffff811115620004d957620004d8620002a8565b5b620004e786828701620003f9565b9250506040620004fa8682870162000453565b9150509250925092565b600081519050919050565b7f4e487b7100000000000000000000000000000000000000000000000000000000600052602260045260246000fd5b600060028204905060018216806200055757607f821691505b6020821081036200056d576200056c6200050f565b5b50919050565b60008190508160005260206000209050919050565b60006020601f8301049050919050565b600082821b905092915050565b600060088302620005d77fffffffffffffffffffffffffffffffffffffffffffffffffffffffffffffffff8262000598565b620005e3868362000598565b95508019841693508086168417925050509392505050565b6000819050919050565b6000819050919050565b6000620006306200062a6200062484620005fb565b62000605565b620005fb565b9050919050565b6000819050919050565b6200064c836200060f565b620006646200065b8262000637565b848454620005a5565b825550505050565b600090565b6200067b6200066c565b6200068881848462000641565b505050565b5b81811015620006b057620006a460008262000671565b6001810190506200068e565b5050565b601f821115620006ff57620006c98162000573565b620006d48462000588565b81016020851015620006e4578190505b620006fc620006f38562000588565b8301826200068d565b50505b505050565b600082821c905092915050565b6000620007246000198460080262000704565b1980831691505092915050565b60006200073f838362000711565b9150826002028217905092915050565b6200075a8262000504565b67ffffffffffffffff811115620007765762000775620002c8565b5b6200078282546200053e565b6200078f828285620006b4565b600060209050601f831160018114620007c75760008415620007b2578287015190505b620007be858262000731565b8655506200082e565b601f198416620007d78662000573565b60005b828110156200080157848901518255600182019150602085019450602081019050620007da565b868310156200082157848901516200081d601f89168262000711565b8355505b6001600288020188555050505b505050505050565b6000819050919050565b6200084b8162000836565b82525050565b6200085c81620005fb565b82525050565b600073ffffffffffffffffffffffffffffffffffffffff82169050919050565b60006200088f8262000862565b9050919050565b620008a18162000882565b82525050565b600060a082019050620008be600083018862000840565b620008cd602083018762000840565b620008dc604083018662000840565b620008eb606083018562000851565b620008fa608083018462000896565b9695505050505050565b600082825260208201905092915050565b6000620009228262000504565b6200092e818562000904565b93506200094081856020860162000382565b6200094b81620002b7565b840191505092915050565b6000602082019050818103600083015262000972818462000915565b905092915050565b600081519050919050565b6000819050602082019050919050565b6000620009a3825162000836565b80915050919050565b6000620009b9826200097a565b82620009c58462000985565b9050620009d28162000995565b9250602082101562000a155762000a107fffffffffffffffffffffffffffffffffffffffffffffffffffffffffffffffff8360200360080262000598565b831692505b5050919050565b60805160a05160c05160e05161010051610120516101405161276662000a7760003960006105d5015260006105a1015260006113f0015260006113cf01526000610e6901526000610ebf01526000610ee801526127666000f3fe608060405234801561001057600080fd5b506004361061010b5760003560e01c806370a08231116100a2578063a0712d6811610071578063a0712d68146102d6578063a457c2d7146102f2578063a9059cbb14610322578063d505accf14610352578063dd62ed3e1461036e5761010b565b806370a08231146102345780637ecebe001461026457806384b0196e1461029457806395d89b41146102b85761010b565b8063313ce567116100de578063313ce567146101ac5780633644e515146101ca57806339509351146101e857806342966c68146102185761010b565b806306fdde0314610110578063095ea7b31461012e57806318160ddd1461015e57806323b872dd1461017c575b600080fd5b61011861039e565b6040516101259190611833565b60405180910390f35b610148600480360381019061014391906118ee565b610430565b6040516101559190611949565b60405180910390f35b610166610453565b6040516101739190611973565b60405180910390f35b6101966004803603810190610191919061198e565b61045d565b6040516101a39190611949565b60405180910390f35b6101b461048c565b6040516101c191906119fd565b60405180910390f35b6101d26104a3565b6040516101df9190611a31565b60405180910390f35b61020260048036038101906101fd91906118ee565b6104b2565b60405161020f9190611949565b60405180910390f35b610232600480360381019061022d9190611a4c565b6104e9565b005b61024e60048036038101906102499190611a79565b6104f6565b60405161025b9190611973565b60405180910390f35b61027e60048036038101906102799190611a79565b61053e565b60405161028b9190611973565b60405180910390f35b61029c61058e565b6040516102af9796959493929190611bae565b60405180910390f35b6102c0610690565b6040516102cd9190611833565b60405180910390f35b6102f060048036038101906102eb9190611a4c565b610722565b005b61030c600480360381019061030791906118ee565b61072f565b6040516103199190611949565b60405180910390f35b61033c600480360381019061033791906118ee565b6107a6565b6040516103499190611949565b60405180910390f35b61036c60048036038101906103679190611c8a565b6107c9565b005b61038860048036038101906103839190611d2c565b61090b565b6040516103959190611973565b60405180910390f35b6060600380546103ad90611d9b565b80601f01602080910402602001604051908101604052809291908181526020018280546103d990611d9b565b80156104265780601f106103fb57610100808354040283529160200191610426565b820191906000526020600020905b81548152906001019060200180831161040957829003601f168201915b5050505050905090565b60008061043b610992565b905061044881858561099a565b600191505092915050565b6000600254905090565b600080610468610992565b9050610475858285610b63565b610480858585610bef565b60019150509392505050565b6000600960009054906101000a900460ff16905090565b60006104ad610e65565b905090565b6000806104bd610992565b90506104de8185856104cf858961090b565b6104d99190611dfb565b61099a565b600191505092915050565b6104f33382610f1c565b50565b60008060008373ffffffffffffffffffffffffffffffffffffffff1673ffffffffffffffffffffffffffffffffffffffff168152602001908152602001600020549050919050565b6000610587600760008473ffffffffffffffffffffffffffffffffffffffff1673ffffffffffffffffffffffffffffffffffffffff1681526020019081526020016000206110e9565b9050919050565b6000606080600080600060606105ce60057f00000000000000000000000000000000000000000000000000000000000000006110f790919063ffffffff16565b61060260067f00000000000000000000000000000000000000000000000000000000000000006110f790919063ffffffff16565b46306000801b600067ffffffffffffffff81111561062357610622611e2f565b5b6040519080825280602002602001820160405280156106515781602001602082028036833780820191505090505b507f0f00000000000000000000000000000000000000000000000000000000000000959493929190965096509650965096509650965090919293949596565b60606004805461069f90611d9b565b80601f01602080910402602001604051908101604052809291908181526020018280546106cb90611d9b565b80156107185780601f106106ed57610100808354040283529160200191610718565b820191906000526020600020905b8154815290600101906020018083116106fb57829003601f168201915b5050505050905090565b61072c33826111a7565b50565b60008061073a610992565b90506000610748828661090b565b90508381101561078d576040517f08c379a000000000000000000000000000000000000000000000000000000000815260040161078490611ed0565b60405180910390fd5b61079a828686840361099a565b60019250505092915050565b6000806107b1610992565b90506107be818585610bef565b600191505092915050565b8342111561080c576040517f08c379a000000000000000000000000000000000000000000000000000000000815260040161080390611f3c565b60405180910390fd5b60007f6e71edae12b1b97f4d1f60370fef10105fa2faae0126114a169c64845d6126c988888861083b8c6112fd565b8960405160200161085196959493929190611f5c565b60405160208183030381529060405280519060200120905060006108748261135b565b9050600061088482878787611375565b90508973ffffffffffffffffffffffffffffffffffffffff168173ffffffffffffffffffffffffffffffffffffffff16146108f4576040517f08c379a00000000000000000000000000000000000000000000000000000000081526004016108eb90612009565b60405180910390fd5b6108ff8a8a8a61099a565b50505050505050505050565b6000600160008473ffffffffffffffffffffffffffffffffffffffff1673ffffffffffffffffffffffffffffffffffffffff16815260200190815260200160002060008373ffffffffffffffffffffffffffffffffffffffff1673ffffffffffffffffffffffffffffffffffffffff16815260200190815260200160002054905092915050565b600033905090565b600073ffffffffffffffffffffffffffffffffffffffff168373ffffffffffffffffffffffffffffffffffffffff1603610a09576040517f08c379a0000000000000000000000000000000000000000000000000000000008152600401610a009061209b565b60405180910390fd5b600073ffffffffffffffffffffffffffffffffffffffff168273ffffffffffffffffffffffffffffffffffffffff1603610a78576040517f08c379a0000000000000000000000000000000000000000000000000000000008152600401610a6f9061212d565b60405180910390fd5b80600160008573ffffffffffffffffffffffffffffffffffffffff1673ffffffffffffffffffffffffffffffffffffffff16815260200190815260200160002060008473ffffffffffffffffffffffffffffffffffffffff1673ffffffffffffffffffffffffffffffffffffffff168152602001908152602001600020819055508173ffffffffffffffffffffffffffffffffffffffff168373ffffffffffffffffffffffffffffffffffffffff167f8c5be1e5ebec7d5bd14f71427d1e84f3dd0314c0f7b2291e5b200ac8c7c3b92583604051610b569190611973565b60405180910390a3505050565b6000610b6f848461090b565b90507fffffffffffffffffffffffffffffffffffffffffffffffffffffffffffffffff8114610be95781811015610bdb576040517f08c379a0000000000000000000000000000000000000000000000000000000008152600401610bd290612199565b60405180910390fd5b610be8848484840361099a565b5b50505050565b600073ffffffffffffffffffffffffffffffffffffffff168373ffffffffffffffffffffffffffffffffffffffff1603610c5e576040517f08c379a0000000000000000000000000000000000000000000000000000000008152600401610c559061222b565b60405180910390fd5b600073ffffffffffffffffffffffffffffffffffffffff168273ffffffffffffffffffffffffffffffffffffffff1603610ccd576040517f08c379a0000000000000000000000000000000000000000000000000000000008152600401610cc4906122bd565b60405180910390fd5b610cd88383836113a0565b60008060008573ffffffffffffffffffffffffffffffffffffffff1673ffffffffffffffffffffffffffffffffffffffff16815260200190815260200160002054905081811015610d5e576040517f08c379a0000000000000000000000000000000000000000000000000000000008152600401610d559061234f565b60405180910390fd5b8181036000808673ffffffffffffffffffffffffffffffffffffffff1673ffffffffffffffffffffffffffffffffffffffff16815260200190815260200160002081905550816000808573ffffffffffffffffffffffffffffffffffffffff1673ffffffffffffffffffffffffffffffffffffffff168152602001908152602001600020600082825401925050819055508273ffffffffffffffffffffffffffffffffffffffff168473ffffffffffffffffffffffffffffffffffffffff167fddf252ad1be2c89b69c2b068fc378daa952ba7f163c4a11628f55a4df523b3ef84604051610e4c9190611973565b60405180910390a3610e5f8484846113a5565b50505050565b60007f000000000000000000000000000000000000000000000000000000000000000073ffffffffffffffffffffffffffffffffffffffff163073ffffffffffffffffffffffffffffffffffffffff16148015610ee157507f000000000000000000000000000000000000000000000000000000000000000046145b15610f0e577f00000000000000000000000000000000000000000000000000000000000000009050610f19565b610f166113aa565b90505b90565b600073ffffffffffffffffffffffffffffffffffffffff168273ffffffffffffffffffffffffffffffffffffffff1603610f8b576040517f08c379a0000000000000000000000000000000000000000000000000000000008152600401610f82906123e1565b60405180910390fd5b610f97826000836113a0565b60008060008473ffffffffffffffffffffffffffffffffffffffff1673ffffffffffffffffffffffffffffffffffffffff1681526020019081526020016000205490508181101561101d576040517f08c379a000000000000000000000000000000000000000000000000000000000815260040161101490612473565b60405180910390fd5b8181036000808573ffffffffffffffffffffffffffffffffffffffff1673ffffffffffffffffffffffffffffffffffffffff1681526020019081526020016000208190555081600260008282540392505081905550600073ffffffffffffffffffffffffffffffffffffffff168373ffffffffffffffffffffffffffffffffffffffff167fddf252ad1be2c89b69c2b068fc378daa952ba7f163c4a11628f55a4df523b3ef846040516110d09190611973565b60405180910390a36110e4836000846113a5565b505050565b600081600001549050919050565b606060ff60001b83146111145761110d83611440565b90506111a1565b81805461112090611d9b565b80601f016020809104026020016040519081016040528092919081815260200182805461114c90611d9b565b80156111995780601f1061116e57610100808354040283529160200191611199565b820191906000526020600020905b81548152906001019060200180831161117c57829003601f168201915b505050505090505b92915050565b600073ffffffffffffffffffffffffffffffffffffffff168273ffffffffffffffffffffffffffffffffffffffff1603611216576040517f08c379a000000000000000000000000000000000000000000000000000000000815260040161120d906124df565b60405180910390fd5b611222600083836113a0565b80600260008282546112349190611dfb565b92505081905550806000808473ffffffffffffffffffffffffffffffffffffffff1673ffffffffffffffffffffffffffffffffffffffff168152602001908152602001600020600082825401925050819055508173ffffffffffffffffffffffffffffffffffffffff16600073ffffffffffffffffffffffffffffffffffffffff167fddf252ad1be2c89b69c2b068fc378daa952ba7f163c4a11628f55a4df523b3ef836040516112e59190611973565b60405180910390a36112f9600083836113a5565b5050565b600080600760008473ffffffffffffffffffffffffffffffffffffffff1673ffffffffffffffffffffffffffffffffffffffff168152602001908152602001600020905061134a816110e9565b9150611355816114b4565b50919050565b600061136e611368610e65565b836114ca565b9050919050565b60008060006113868787878761150b565b91509150611393816115ed565b8192505050949350505050565b505050565b505050565b60007f8b73c3c69bb8fe3d512ecc4cf759cc79239f7b179b0ffacaa9a75d522b39400f7f00000000000000000000000000000000000000000000000000000000000000007f000000000000000000000000000000000000000000000000000000000000000046306040516020016114259594939291906124ff565b60405160208183030381529060405280519060200120905090565b6060600061144d83611753565b90506000602067ffffffffffffffff81111561146c5761146b611e2f565b5b6040519080825280601f01601f19166020018201604052801561149e5781602001600182028036833780820191505090505b5090508181528360208201528092505050919050565b6001816000016000828254019250508190555050565b60006040517f190100000000000000000000000000000000000000000000000000000000000081528360028201528260228201526042812091505092915050565b6000807f7fffffffffffffffffffffffffffffff5d576e7357a4501ddfe92f46681b20a08360001c11156115465760006003915091506115e4565b60006001878787876040516000815260200160405260405161156b9493929190612552565b6020604051602081039080840390855afa15801561158d573d6000803e3d6000fd5b505050602060405103519050600073ffffffffffffffffffffffffffffffffffffffff168173ffffffffffffffffffffffffffffffffffffffff16036115db576000600192509250506115e4565b80600092509250505b94509492505050565b6000600481111561160157611600612597565b5b81600481111561161457611613612597565b5b0315611750576001600481111561162e5761162d612597565b5b81600481111561164157611640612597565b5b03611681576040517f08c379a000000000000000000000000000000000000000000000000000000000815260040161167890612612565b60405180910390fd5b6002600481111561169557611694612597565b5b8160048111156116a8576116a7612597565b5b036116e8576040517f08c379a00000000000000000000000000000000000000000000000000000000081526004016116df9061267e565b60405180910390fd5b600360048111156116fc576116fb612597565b5b81600481111561170f5761170e612597565b5b0361174f576040517f08c379a000000000000000000000000000000000000000000000000000000000815260040161174690612710565b60405180910390fd5b5b50565b60008060ff8360001c169050601f81111561179a576040517fb3512b0c00000000000000000000000000000000000000000000000000000000815260040160405180910390fd5b80915050919050565b600081519050919050565b600082825260208201905092915050565b60005b838110156117dd5780820151818401526020810190506117c2565b60008484015250505050565b6000601f19601f8301169050919050565b6000611805826117a3565b61180f81856117ae565b935061181f8185602086016117bf565b611828816117e9565b840191505092915050565b6000602082019050818103600083015261184d81846117fa565b905092915050565b600080fd5b600073ffffffffffffffffffffffffffffffffffffffff82169050919050565b60006118858261185a565b9050919050565b6118958161187a565b81146118a057600080fd5b50565b6000813590506118b28161188c565b92915050565b6000819050919050565b6118cb816118b8565b81146118d657600080fd5b50565b6000813590506118e8816118c2565b92915050565b6000806040838503121561190557611904611855565b5b6000611913858286016118a3565b9250506020611924858286016118d9565b9150509250929050565b60008115159050919050565b6119438161192e565b82525050565b600060208201905061195e600083018461193a565b92915050565b61196d816118b8565b82525050565b60006020820190506119886000830184611964565b92915050565b6000806000606084860312156119a7576119a6611855565b5b60006119b5868287016118a3565b93505060206119c6868287016118a3565b92505060406119d7868287016118d9565b9150509250925092565b600060ff82169050919050565b6119f7816119e1565b82525050565b6000602082019050611a1260008301846119ee565b92915050565b6000819050919050565b611a2b81611a18565b82525050565b6000602082019050611a466000830184611a22565b92915050565b600060208284031215611a6257611a61611855565b5b6000611a70848285016118d9565b91505092915050565b600060208284031215611a8f57611a8e611855565b5b6000611a9d848285016118a3565b91505092915050565b60007fff0000000000000000000000000000000000000000000000000000000000000082169050919050565b611adb81611aa6565b82525050565b611aea8161187a565b82525050565b600081519050919050565b600082825260208201905092915050565b6000819050602082019050919050565b611b25816118b8565b82525050565b6000611b378383611b1c565b60208301905092915050565b6000602082019050919050565b6000611b5b82611af0565b611b658185611afb565b9350611b7083611b0c565b8060005b83811015611ba1578151611b888882611b2b565b9750611b9383611b43565b925050600181019050611b74565b5085935050505092915050565b600060e082019050611bc3600083018a611ad2565b8181036020830152611bd581896117fa565b90508181036040830152611be981886117fa565b9050611bf86060830187611964565b611c056080830186611ae1565b611c1260a0830185611a22565b81810360c0830152611c248184611b50565b905098975050505050505050565b611c3b816119e1565b8114611c4657600080fd5b50565b600081359050611c5881611c32565b92915050565b611c6781611a18565b8114611c7257600080fd5b50565b600081359050611c8481611c5e565b92915050565b600080600080600080600060e0888a031215611ca957611ca8611855565b5b6000611cb78a828b016118a3565b9750506020611cc88a828b016118a3565b9650506040611cd98a828b016118d9565b9550506060611cea8a828b016118d9565b9450506080611cfb8a828b01611c49565b93505060a0611d0c8a828b01611c75565b92505060c0611d1d8a828b01611c75565b91505092959891949750929550565b60008060408385031215611d4357611d42611855565b5b6000611d51858286016118a3565b9250506020611d62858286016118a3565b9150509250929050565b7f4e487b7100000000000000000000000000000000000000000000000000000000600052602260045260246000fd5b60006002820490506001821680611db357607f821691505b602082108103611dc657611dc5611d6c565b5b50919050565b7f4e487b7100000000000000000000000000000000000000000000000000000000600052601160045260246000fd5b6000611e06826118b8565b9150611e11836118b8565b9250828201905080821115611e2957611e28611dcc565b5b92915050565b7f4e487b7100000000000000000000000000000000000000000000000000000000600052604160045260246000fd5b7f45524332303a2064656372656173656420616c6c6f77616e63652062656c6f7760008201527f207a65726f000000000000000000000000000000000000000000000000000000602082015250565b6000611eba6025836117ae565b9150611ec582611e5e565b604082019050919050565b60006020820190508181036000830152611ee981611ead565b9050919050565b7f45524332305065726d69743a206578706972656420646561646c696e65000000600082015250565b6000611f26601d836117ae565b9150611f3182611ef0565b602082019050919050565b60006020820190508181036000830152611f5581611f19565b9050919050565b600060c082019050611f716000830189611a22565b611f7e6020830188611ae1565b611f8b6040830187611ae1565b611f986060830186611964565b611fa56080830185611964565b611fb260a0830184611964565b979650505050505050565b7f45524332305065726d69743a20696e76616c6964207369676e61747572650000600082015250565b6000611ff3601e836117ae565b9150611ffe82611fbd565b602082019050919050565b6000602082019050818103600083015261202281611fe6565b9050919050565b7f45524332303a20617070726f76652066726f6d20746865207a65726f2061646460008201527f7265737300000000000000000000000000000000000000000000000000000000602082015250565b60006120856024836117ae565b915061209082612029565b604082019050919050565b600060208201905081810360008301526120b481612078565b9050919050565b7f45524332303a20617070726f766520746f20746865207a65726f20616464726560008201527f7373000000000000000000000000000000000000000000000000000000000000602082015250565b60006121176022836117ae565b9150612122826120bb565b604082019050919050565b600060208201905081810360008301526121468161210a565b9050919050565b7f45524332303a20696e73756666696369656e7420616c6c6f77616e6365000000600082015250565b6000612183601d836117ae565b915061218e8261214d565b602082019050919050565b600060208201905081810360008301526121b281612176565b9050919050565b7f45524332303a207472616e736665722066726f6d20746865207a65726f20616460008201527f6472657373000000000000000000000000000000000000000000000000000000602082015250565b60006122156025836117ae565b9150612220826121b9565b604082019050919050565b6000602082019050818103600083015261224481612208565b9050919050565b7f45524332303a207472616e7366657220746f20746865207a65726f206164647260008201527f6573730000000000000000000000000000000000000000000000000000000000602082015250565b60006122a76023836117ae565b91506122b28261224b565b604082019050919050565b600060208201905081810360008301526122d68161229a565b9050919050565b7f45524332303a207472616e7366657220616d6f756e742065786365656473206260008201527f616c616e63650000000000000000000000000000000000000000000000000000602082015250565b60006123396026836117ae565b9150612344826122dd565b604082019050919050565b600060208201905081810360008301526123688161232c565b9050919050565b7f45524332303a206275726e2066726f6d20746865207a65726f2061646472657360008201527f7300000000000000000000000000000000000000000000000000000000000000602082015250565b60006123cb6021836117ae565b91506123d68261236f565b604082019050919050565b600060208201905081810360008301526123fa816123be565b9050919050565b7f45524332303a206275726e20616d6f756e7420657863656564732062616c616e60008201527f6365000000000000000000000000000000000000000000000000000000000000602082015250565b600061245d6022836117ae565b915061246882612401565b604082019050919050565b6000602082019050818103600083015261248c81612450565b9050919050565b7f45524332303a206d696e7420746f20746865207a65726f206164647265737300600082015250565b60006124c9601f836117ae565b91506124d482612493565b602082019050919050565b600060208201905081810360008301526124f8816124bc565b9050919050565b600060a0820190506125146000830188611a22565b6125216020830187611a22565b61252e6040830186611a22565b61253b6060830185611964565b6125486080830184611ae1565b9695505050505050565b60006080820190506125676000830187611a22565b61257460208301866119ee565b6125816040830185611a22565b61258e6060830184611a22565b95945050505050565b7f4e487b7100000000000000000000000000000000000000000000000000000000600052602160045260246000fd5b7f45434453413a20696e76616c6964207369676e61747572650000000000000000600082015250565b60006125fc6018836117ae565b9150612607826125c6565b602082019050919050565b6000602082019050818103600083015261262b816125ef565b9050919050565b7f45434453413a20696e76616c6964207369676e6174757265206c656e67746800600082015250565b6000612668601f836117ae565b915061267382612632565b602082019050919050565b600060208201905081810360008301526126978161265b565b9050919050565b7f45434453413a20696e76616c6964207369676e6174757265202773272076616c60008201527f7565000000000000000000000000000000000000000000000000000000000000602082015250565b60006126fa6022836117ae565b91506127058261269e565b604082019050919050565b60006020820190508181036000830152612729816126ed565b905091905056fea2646970667358221220ec99b2e986e1bb1d618144174a0b72f41f5b33814ec5a6f583dd7ae7e7b79bef64736f6c63430008180033",
  "devdoc": {
    "events": {
      "Approval(address,address,uint256)": {
        "details": "Emitted when the allowance of a `spender` for an `owner` is set by a call to {approve}. `value` is the new allowance."
      },
      "EIP712DomainChanged()": {
        "details": "MAY be emitted to signal that the domain could have changed."
      },
      "Transfer(address,address,uint256)": {
        "details": "Emitted when `value` tokens are moved from one account (`from`) to another (`to`). Note that `value` may be zero."
      }
    },
    "kind": "dev",
    "methods": {
      "DOMAIN_SEPARATOR()": {
        "details": "Returns the domain separator used in the encoding of the signature for {permit}, as defined by {EIP712}."
      },
      "allowance(address,address)": {
        "details": "See {IERC20-allowance}."
      },
      "approve(address,uint256)": {
        "details": "See {IERC20-approve}. NOTE: If `amount` is the maximum `uint256`, the allowance is not updated on `transferFrom`. This is semantically equivalent to an infinite approval. Requirements: - `spender` cannot be the zero address."
      },
      "balanceOf(address)": {
        "details": "See {IERC20-balanceOf}."
      },
      "decimals()": {
        "details": "Returns the number of decimals used to get its user representation. For example, if `decimals` equals `2`, a balance of `505` tokens should be displayed to a user as `5.05` (`505 / 10 ** 2`). Tokens usually opt for a value of 18, imitating the relationship between Ether and Wei. This is the default value returned by this function, unless it's overridden. NOTE: This information is only used for _display_ purposes: it in no way affects any of the arithmetic of the contract, including {IERC20-balanceOf} and {IERC20-transfer}."
      },
      "decreaseAllowance(address,uint256)": {
        "details": "Atomically decreases the allowance granted to `spender` by the caller. This is an alternative to {approve} that can be used as a mitigation for problems described in {IERC20-approve}. Emits an {Approval} event indicating the updated allowance. Requirements: - `spender` cannot be the zero address. - `spender` must have allowance for the caller of at least `subtractedValue`."
      },
      "eip712Domain()": {
        "details": "See {EIP-5267}. _Available since v4.9._"
      },
      "increaseAllowance(address,uint256)": {
        "details": "Atomically increases the allowance granted to `spender` by the caller. This is an alternative to {approve} that can be used as a mitigation for problems described in {IERC20-approve}. Emits an {Approval} event indicating the updated allowance. Requirements: - `spender` cannot be the zero address."
      },
      "name()": {
        "details": "Returns the name of the token."
      },
      "nonces(address)": {
        "details": "Returns the current nonce for `owner`. This value must be included whenever a signature is generated for {permit}. Every successful call to {permit} increases ``owner``'s nonce by one. This prevents a signature from being used multiple times."
      },
      "permit(address,address,uint256,uint256,uint8,bytes32,bytes32)": {
        "details": "Sets `value` as the allowance of `spender` over ``owner``'s tokens, given ``owner``'s signed approval. IMPORTANT: The same issues {IERC20-approve} has related to transaction ordering also apply here. Emits an {Approval} event. Requirements: - `spender` cannot be the zero address. - `deadline` must be a timestamp in the future. - `v`, `r` and `s` must be a valid `secp256k1` signature from `owner` over the EIP712-formatted function arguments. - the signature must use ``owner``'s current nonce (see {nonces}). For more information on the signature format, see the https://eips.ethereum.org/EIPS/eip-2612#specification[relevant EIP section]. CAUTION: See Security Considerations above."
      },
      "symbol()": {
        "details": "Returns the symbol of the token, usually a shorter version of the name."
      },
      "totalSupply()": {
        "details": "See {IERC20-totalSupply}."
      },
      "transfer(address,uint256)": {
        "details": "See {IERC20-transfer}. Requirements: - `to` cannot be the zero address. - the caller must have a balance of at least `amount`."
      },
      "transferFrom(address,address,uint256)": {
        "details": "See {IERC20-transferFrom}. Emits an {Approval} event indicating the updated allowance. This is not required by the EIP. See the note at the beginning of {ERC20}. NOTE: Does not update the allowance if the current allowance is the maximum `uint256`. Requirements: - `from` and `to` cannot be the zero address. - `from` must have a balance of at least `amount`. - the caller must have allowance for ``from``'s tokens of at least `amount`."
      }
    },
    "version": 1
  },
  "userdoc": {
    "kind": "user",
    "methods": {},
    "version": 1
  },
  "storageLayout": {
    "storage": [
      {
        "astId": 4064,
        "contract": "contracts/MockERC20.sol:MockERC20",
        "label": "_balances",
        "offset": 0,
        "slot": "0",
        "type": "t_mapping(t_address,t_uint256)"
      },
      {
        "astId": 4070,
        "contract": "contracts/MockERC20.sol:MockERC20",
        "label": "_allowances",
        "offset": 0,
        "slot": "1",
        "type": "t_mapping(t_address,t_mapping(t_address,t_uint256))"
      },
      {
        "astId": 4072,
        "contract": "contracts/MockERC20.sol:MockERC20",
        "label": "_totalSupply",
        "offset": 0,
        "slot": "2",
        "type": "t_uint256"
      },
      {
        "astId": 4074,
        "contract": "contracts/MockERC20.sol:MockERC20",
        "label": "_name",
        "offset": 0,
        "slot": "3",
        "type": "t_string_storage"
      },
      {
        "astId": 4076,
        "contract": "contracts/MockERC20.sol:MockERC20",
        "label": "_symbol",
        "offset": 0,
        "slot": "4",
        "type": "t_string_storage"
      },
      {
        "astId": 6007,
        "contract": "contracts/MockERC20.sol:MockERC20",
        "label": "_nameFallback",
        "offset": 0,
        "slot": "5",
        "type": "t_string_storage"
      },
      {
        "astId": 6009,
        "contract": "contracts/MockERC20.sol:MockERC20",
        "label": "_versionFallback",
        "offset": 0,
        "slot": "6",
        "type": "t_string_storage"
      },
      {
        "astId": 4736,
        "contract": "contracts/MockERC20.sol:MockERC20",
        "label": "_nonces",
        "offset": 0,
        "slot": "7",
        "type": "t_mapping(t_address,t_struct(Counter)4985_storage)"
      },
      {
        "astId": 4744,
        "contract": "contracts/MockERC20.sol:MockERC20",
        "label": "_PERMIT_TYPEHASH_DEPRECATED_SLOT",
        "offset": 0,
        "slot": "8",
        "type": "t_bytes32"
      },
      {
        "astId": 7158,
        "contract": "contracts/MockERC20.sol:MockERC20",
        "label": "decimals_",
        "offset": 0,
        "slot": "9",
        "type": "t_uint8"
      }
    ],
    "types": {
      "t_address": {
        "encoding": "inplace",
        "label": "address",
        "numberOfBytes": "20"
      },
      "t_bytes32": {
        "encoding": "inplace",
        "label": "bytes32",
        "numberOfBytes": "32"
      },
      "t_mapping(t_address,t_mapping(t_address,t_uint256))": {
        "encoding": "mapping",
        "key": "t_address",
        "label": "mapping(address => mapping(address => uint256))",
        "numberOfBytes": "32",
        "value": "t_mapping(t_address,t_uint256)"
      },
      "t_mapping(t_address,t_struct(Counter)4985_storage)": {
        "encoding": "mapping",
        "key": "t_address",
        "label": "mapping(address => struct Counters.Counter)",
        "numberOfBytes": "32",
        "value": "t_struct(Counter)4985_storage"
      },
      "t_mapping(t_address,t_uint256)": {
        "encoding": "mapping",
        "key": "t_address",
        "label": "mapping(address => uint256)",
        "numberOfBytes": "32",
        "value": "t_uint256"
      },
      "t_string_storage": {
        "encoding": "bytes",
        "label": "string",
        "numberOfBytes": "32"
      },
      "t_struct(Counter)4985_storage": {
        "encoding": "inplace",
        "label": "struct Counters.Counter",
        "members": [
          {
            "astId": 4984,
            "contract": "contracts/MockERC20.sol:MockERC20",
            "label": "_value",
            "offset": 0,
            "slot": "0",
            "type": "t_uint256"
          }
        ],
        "numberOfBytes": "32"
      },
      "t_uint256": {
        "encoding": "inplace",
        "label": "uint256",
        "numberOfBytes": "32"
      },
      "t_uint8": {
        "encoding": "inplace",
        "label": "uint8",
        "numberOfBytes": "1"
      }
    }
  }
}